:1000000045C000004BC0000049C0000047C00000D0
:1000100045C0000043C0000041C000003FC00000D8
:100020003DC000003BC0000039C0000037C00000E8
:1000300035C0000033C0000031C000002FC00000F8
:100040002DC000002BC0000029C0000027C0000008
:1000500025C0000023C0000021C000001FC0000018
:100060001DC000001BC0000019C0000017C0000028
:1000700015C0000013C0000011C000000FC0000038
:100080000DC000000BC0000009C0000011241FBEFD
:10009000CFEFD0E1DEBFCDBF20D0A9C0B1CF1816C1
:1000A00019066CF420E030E0E9EFF0E03197F1F769
:1000B00000C000002F5F3F4F82179307A9F70895F4
:1000C00081EE87B986EE86B9089519BC18BC8FB544
:1000D00089668FBD8BE08EBD0895F7DF8FEF87BBFC
:1000E00081BB10926100ECDF369ACFEFD0E064B1B3
:1000F00075B180E090E016D020E034E543E557E4A8
:100100004ED0181664F482B3805882BB84E690E027
:10011000C6DFD9BDC8BD84E690E0C1DFE8CF19BC19
:1001200018BCE5CFE89409C097FB3EF49095809504
:10013000709561957F4F8F4F9F4F9923A9F0F92FAD
:1001400096E9BB279395F695879577956795B7952B
:10015000F111F8CFFAF4BB0F11F460FF1BC06F5F11
:100160007F4F8F4F9F4F16C0882311F096E911C023
:10017000772321F09EE8872F762F05C0662371F044
:1001800096E8862F70E060E02AF09A95660F771F58
:10019000881FDAF7880F9695879597F9089503D009
:1001A00008F48FEF0895990F0008550FAA0BE0E8A7
:1001B000FEEF16161706E807F907C0F01216130629
:1001C000E407F50798F0621B730B840B950B39F469
:1001D0000A2661F0232B242B252B21F408950A26CF
:1001E00009F4A140A6958FEF811D811D0895F89413
:0201F000FFCF3F
:00000001FF
