:10000000C2C00000DDC00000DBC00000D9C000009D
:10001000D7C00000D5C00000D3C00000D1C0000090
:10002000CFC00000CDC00000CBC00000C9C00000A0
:10003000C7C00000C5C00000C3C00000C1C00000B0
:10004000BFC00000BDC00000BBC00000B9C00000C0
:10005000B7C00000B5C00000B3C00000B1C00000D0
:10006000AFC00000ADC00000ABC00000A9C00000E0
:10007000A7C00000A5C00000A3C00000A1C00000F0
:100080009FC000009DC000009BC0000000407A108F
:10009000F35A00A0724E18090010A5D4E80000E839
:1000A0007648170000E40B54020000CA9A3B000097
:1000B00000E1F505000080969800000040420F0026
:1000C0000000A08601000000102700000000E803E7
:1000D000000000006400000000000A0000000000B2
:1000E0000100000000002C76D888DC674F0823DF71
:1000F000C1DFAE59E1B1B796E5E3E453C63AE65144
:10010000997696E8E6C28426EB898C9B62ED407C6A
:100110006FFCEFBC9C9F40F2BAA56FA5F490055A06
:100120002AF75C936B6CF9676DC11BFCE0E40D472B
:10013000FEF520E6B500D0ED902E0300943577054E
:100140000080841E080000204E0A000000C80C3306
:100150003333330F986E12831141EF8D2114893B95
:10016000E65516CFFEE6DB18D1844B381BF77C1D15
:10017000901DA4BBE424203284725E228100C9F168
:1001800024ECA1E53D2711241FBECFEFD0E1DEBF57
:10019000CDBF11E0A0E0B1E0EEECF9E000E00BBF74
:1001A00002C007900D92A030B107D9F721E0A0E07E
:1001B000B1E001C01D92A030B207E1F729D005C41B
:1001C0001FCF181619066CF420E030E0EFECF7E0D2
:1001D0003197F1F700C000002F5F3F4F8217930760
:1001E000A9F7089511BE19BC18BC1092790010929D
:1001F000780083B7896683BF8FB589668FBD8BE032
:100200008EBD089582EE87B986B1816A86B9089558
:10021000CF93DF93CDB7DEB727970FB6F894DEBF45
:100220000FBECDBF109261008FEF81BB84BB87BB37
:10023000E9DFD8DF369ACE0101967C010F2EF7E078
:10024000DF2EF02D24B135B1A1E8B0E842D1880FFE
:10025000892F881F990B9195BC0180E090E0ABD06D
:100260004B015C01870121E030E044E050E040D1E7
:10027000F7018D2D11928A95E9F720E030E040EFEB
:1002800051E4C501B40107D06AD061BF84EF91E0A9
:1002900098DFD8CF5058BB27AA270ED0E0C0D1D0C6
:1002A00030F0D6D020F031F49F3F11F41EF4C6C0D8
:1002B0000EF4E095E7FBBCC0E92FE2D080F3BA175B
:1002C000620773078407950718F071F49EF5FAC06A
:1002D0000EF4E0950B2EBA2FA02D0B01B901900161
:1002E0000C01CA01A0011124FF27591B99F0593FA5
:1002F00050F4503E68F11A16F040A22F232F342FED
:100300004427585FF3CF469537952795A795F0403A
:100310005395C9F77EF41F16BA0B620B730B840B4F
:10032000BAF09150A1F0FF0FBB1F661F771F881F07
:10033000C2F70EC0BA0F621F731F841F48F487955F
:1003400077956795B795F7959E3F08F0B3CF93954E
:10035000880F08F09927EE0F97958795089598D004
:1003600088F09F5790F0B92F9927B751A0F0D1F09E
:10037000660F771F881F991F1AF0BA95C9F712C028
:10038000B13081F09FD0B1E008959CC0672F782FE5
:100390008827B85F39F0B93FCCF386957795679594
:1003A000B395D9F73EF490958095709561957F4F00
:1003B0008F4F9F4F0895E89409C097FB3EF49095A6
:1003C0008095709561957F4F8F4F9F4F9923A9F02E
:1003D000F92F96E9BB279395F695879577956795BD
:1003E000B795F111F8CFFAF4BB0F11F460FF1BC001
:1003F0006F5F7F4F8F4F9F4F16C0882311F096E994
:1004000011C0772321F09EE8872F762F05C0662341
:1004100071F096E8862F70E060E02AF09A95660FFA
:10042000771F881FDAF7880F9695879597F90895B3
:1004300097F99F6780E870E060E008959FEF80EC97
:10044000089500240A94161617061806090608953A
:1004500000240A9412161306140605060895092EA0
:100460000394000C11F4882352F0BB0F40F4BF2B0F
:1004700011F460FF04C06F5F7F4F8F4F9F4F08954F
:1004800057FD9058440F551F59F05F3F71F0479545
:10049000880F97FB991F61F09F3F79F0879508952A
:1004A000121613061406551FF2CF4695F1DF08C049
:1004B000161617061806991FF1CF86957105610566
:1004C00008940895E894BB2766277727CB0197F90E
:1004D0000895A29FB001B39FC001A39F700D811D1D
:1004E0001124911DB29F700D811D1124911D08953D
:1004F000EF920F931F93CF93DF93E80147FD02C064
:1005000034E001C034E1042E000C550B57FF03C04A
:10051000519541955109E32E022F242FAE0107D0AA
:10052000CE01DF91CF911F910F91EF9008958F929F
:100530009F92AF92BF92CF92DF92EF92FF920F9372
:100540001F93CF93DF93CDB7DEB729970FB6F894FB
:10055000DEBF0FBECDBF6A01122FB02E2BE32017D6
:1005600020F0FF24F394F00E02C02CE3F22E0F2DA6
:1005700027E0AE014F5F5F4F50D1BC014981842F0E
:100580008970813031F0E1FC06C0E0FE06C090E2E7
:1005900005C09DE203C09BE201C090E05E2D50715A
:1005A00043FF3CC0911102C083E001C084E0811789
:1005B00018F4212F281B01C020E051110BC0F601B7
:1005C000822F30E2882319F031938150FBCFC20E85
:1005D000D11C20E0992329F0D6019C93F601319695
:1005E0006F01C6010396E2FE0AC03EE4D6013C93C9
:1005F00041E411964C93119712963C9306C03EE647
:10060000F601308341E641833283FC01322F40E220
:10061000332309F442C041933150FACF42FF44C022
:10062000911102C083E001C084E0811718F4212FEA
:10063000281B01C020E051110BC0F601822F30E2CF
:10064000882319F031938150FBCFC20ED11C20E0DA
:10065000992329F0D6019C93F60131966F01C601CA
:100660000396E2FE0BC039E4D6013C933EE41196BA
:100670003C93119736E412963C9307C039E6F60195
:1006800030833EE6318336E63283FC01322F40E28E
:10069000332319F041933150FBCFFC01E20FF11DE0
:1006A00010828EEF9FEFA6C021E030E0911102C0D2
:1006B00020E030E0161617061CF4FB01319602C04C
:1006C000E1E0F0E02E0F3F1FBB2021F0EB2DF0E02A
:1006D000319602C0E0E0F0E02E0F3F1FE12FF0E086
:1006E0002E173F071CF4121B212F01C020E08E2D76
:1006F000887159F4F601822F30E2882319F0319382
:100700008150FBCFC20ED11C20E0992329F0D601E5
:100710009C93F60131966F0151110BC0F601822FA7
:1007200090E3882319F091938150FBCFC20ED11C26
:1007300020E00F2D060F9A81342F307144FF03C043
:10074000913309F40150101624F4093018F008E030
:1007500001C001E0AB0177FF02C040E050E0FB01C7
:10076000E41BF50BA1E0B0E0AC0FBD1FEA0FFB1FCF
:100770008EE2A82E4B01801A91080B2D10E01195E6
:10078000019511094F3FBFEF5B0721F4D601AC92F1
:1007900011966D01641775072CF08416950614F4F4
:1007A000818101C080E3415051093196D6011196F3
:1007B0007D014017510724F0D6018C936701E2CFE9
:1007C0006417750739F4963320F4953319F4311111
:1007D00001C081E3F6018083F701822F90E2882334
:1007E00019F091938150FBCFF701E20FF11D1082B8
:1007F00080E090E029960FB6F894DEBF0FBECDBF23
:10080000DF91CF911F910F91FF90EF90DF90CF90EC
:10081000BF90AF909F908F900895283008F027E008
:100820003327DA01990F311D87FD9160009661052C
:10083000710539F432602E5F3D9330E32A95E1F77C
:1008400008959F3F30F080387105610509F03C5FE5
:100850003C5F3D93913008F08068911DDF93CF930A
:100860001F930F93FF92EF92192F987F9695E92F80
:1008700096959695E90FFF27EA51FF4F9927332761
:10088000EE24FF24A701E70105900894079428F4BB
:10089000360FE71EF81E491F511D660F771F881F70
:1008A000991F0694A1F70590079428F4E70EF81E07
:1008B000491F561FC11D770F881F991F661F069479
:1008C000A1F70590079428F4F80E491F561FC71F7B
:1008D000D11D880F991F661F771F0694A1F70590F9
:1008E000079420F4490F561FC71FD81F990F661F82
:1008F000771F881F0694A9F784911095177041F00F
:10090000D695C79557954795F794E7941A95C1F7EB
:10091000ECE8F0E06894159015913591659195910A
:1009200005907FE27395E118F10A430B560BC90B52
:10093000D009C0F7E10CF11E431F561FC91FD01D7F
:100940007EF4703311F48A95E6CFE894015030F0CC
:10095000080F0AF40027021708F4202F2395022F0E
:100960007A3328F079E37D932A95E9F710C07D93D7
:100970002A9589F606949795679537951795179454
:10098000E118F10A430B560BC90BD00998F02395D7
:100990007E9173957A3308F070E37C932013B8F757
:1009A0007E9170617D9330F0839571E37D9370E368
:1009B0002A95E1F71124EF90FF900F911F91CF91AD
:0E09C000DF91992787FD90950895F894FFCF59
:00000001FF
