S00A000042312E73726563A7
S113000045C0000058C0000056C0000054C00000A5
S113001052C0000050C000004EC000004CC00000A0
S11300204AC0000048C0000046C0000044C00000B0
S113003042C0000040C000003EC000003CC00000C0
S11300403AC0000038C0000036C0000034C00000D0
S113005032C0000030C000002EC000002CC00000E0
S11300602AC0000028C0000026C0000024C00000F0
S113007022C0000020C000001EC000001CC0000000
S11300801AC0000018C0000016C0000011241FBED2
S1130090CFEFD0E1DEBFCDBF11E0A0E0B1E0EAEEEA
S11300A0F1E000E00BBF02C007900D92AA31B10746
S11300B0D9F77DD098C0A4CFAB9A8FEC97E0019785
S11300C0F1F700C00000AB988FEC97E00197F1F7CF
S11300D000C000000895CF93C82F85BBAA9AECDF17
S11300E0C295C07FC5BBAA9AE7DFCF910895CF938D
S11300F0C82F85BBAA98E0DFC295C07FC5BBAA986C
S1130100DBDFCF910895CF938FEF84BB15BAC0E2A4
S1130110C5BBD2DFC5BBD0DF80E885BBCDDF15BA58
S1130120CBDF80EF85BBC8DF15BAC6DF80E685BBB1
S1130130C3DFCF910895CF93DF93EC0188818823A7
S113014029F02196C8DF89918111FCCFDF91CF91ED
S113015008950F931F93CF93DF938C0182E0C7DF41
S11301601016110644F4C0E0D0E084E1C0DF21960B
S11301700C171D07D1F715BADF91CF911F910F917D
S1130180089581E0B4DF82E0B2CF0895181619060D
S11301906CF420E030E0EFECF7E03197F1F700C0C9
S11301A000002F5F3F4F82179307A9F708958FEF41
S11301B084BB15BA81BB81E082BBA5DFE2DF84E6A4
S11301C090E0E4DF82E090E0C4DF80E091E0B3DF20
S11301D080ED97E0DBDFD5DF84E690E0D7DF8CE0CD
S10D01E091E0A9DFFFCFF894FFCFF0
S11301EA68616C6C6F2048616C6C6F005765206D98
S10D01FA65657420616761696E0099
S9030000FC
