:1000000045C0000061C000007CC000005CC0000072
:100010005AC0000058C0000056C0000054C0000084
:1000200052C0000050C000004EC000004CC0000094
:100030004AC0000048C0000046C0000044C00000A4
:1000400042C0000040C000003EC000003CC00000B4
:100050003AC0000038C0000036C0000034C00000C4
:1000600032C0000030C000002EC000002CC00000D4
:100070002AC0000028C0000026C0000024C00000E4
:1000800022C0000020C000001EC0000011241FBEBE
:10009000CFEFD0E1DEBFCDBF11E0A0E0B1E0ECECEE
:1000A000F1E000E00BBF02C007900D92AA30B1074B
:1000B000D9F721E0AAE0B1E001C01D92A031B2075A
:1000C000E1F748D081C09CCF1F920F920FB60F92DC
:1000D00011248F939F9380910A0190910B010196B7
:1000E00090930B0180930A0181E090E090930F01BF
:1000F00080930E019F918F910F900FBE0F901F90D4
:1001000018951F920F920FB60F9211248F939F9301
:1001100080910A0190910B01019790930B018093BC
:100120000A0181E090E090930D0180930C019F9172
:100130008F910F900FBE0F901F9018958B309105E7
:1001400018F089E785BB0895FC01E050FF4F8081DE
:1001500085BB08958FEF84BB87E085BB11BA12BAC7
:100160008FE080936A0083E089BF789480910E01CC
:1001700090910F01892B99F080910C0190910D01C4
:10018000892B69F010920B0110920A0110920F0155
:1001900010920E0110920D0110920C0108C01092E5
:1001A0000F0110920E0110920D0110920C0180911E
:1001B0000A0190910B01C2DF85B7806285BF8895E7
:0C01C00085B78F7D85BFD2CFF894FFCFAC
:0A01CC003F065B4F666D7D077F6FF5
:00000001FF
