:1000000045C0000053C0000052C0000070C0000096
:100010004DC000004BC0000049C0000047C00000B8
:1000200045C0000043C0000041C000003FC00000C8
:100030003DC000003BC0000039C0000037C00000D8
:1000400035C0000033C0000031C000002FC00000E8
:100050002DC000002BC0000029C0000027C00000F8
:1000600025C0000023C0000021C000001FC0000008
:100070001DC000001BC0000019C0000017C0000018
:1000800015C0000013C0000011C0000011241FBEE5
:10009000CFEFD0E1DEBFCDBF21E0A0E0B1E001C0F5
:1000A0001D92A230B207E1F743D050C0A9CF1F92F2
:1000B0000F920FB60F9211248F939F93809100019E
:1000C00090910101079764F482B3880F82BB8091FD
:1000D000000190910101019690930101809300012C
:1000E0009F918F910F900FBE0F901F9018951F92A8
:1000F0000F920FB60F9211248F939F93809100015E
:10010000909101011816190664F482B3869582BB9A
:1001100080910001909101010197909301018093DA
:1001200000019F918F910F900FBE0F901F90189517
:100130008FEF81BB81E082BBEAE6F0E080818C62D8
:10014000808389B7866089BF7894FFCFF894FFCF0A
:00000001FF
