S00A000042372E73726563A1
S113000045C0000060C000005EC000005CC000008D
S11300105AC0000058C0000056C0000054C0000080
S113002052C0000050C000004EC000004CC0000090
S11300304AC0000048C0000046C0000044C00000A0
S113004042C0000040C000003EC000003CC00000B0
S11300503AC0000038C0000036C0000034C00000C0
S113006032C0000030C000002EC000002CC00000D0
S11300702AC0000028C0000026C0000024C00000E0
S113008022C0000020C000001EC0000011241FBEBA
S1130090CFEFD0E1DEBFCDBF11E0A0E0B1E0EEEFE5
S11300A0F1E000E00BBF02C007900D92AC33B10742
S11300B0D9F721E0ACE3B1E001C01D92AD33B20742
S11300C0E1F790D09AC09CCF181619066CF420E082
S11300D030E0EFECF7E03197F1F700C000002F5F5C
S11300E03F4F82179307A9F7089587E082BB84EFF7
S11300F091E0EACF089583E082BB84EF91E0E4CFFE
S1130100089581E082BB84EF91E0DECF08958FE013
S113011082BB84EF91E0D8CF0895833079F028F43E
S1130120813041F0823041F00895843049F08530C7
S113013049F00895DACF0895DECF0895E2CF089507
S1130140E6CF089512BA0895CF93DF93C82FD0E075
S113015080913C0190E0FC01EE0FFF1FE80FF91FB6
S1130160EC0FFD1FEE0FFF1FEE0FFF1FE050FF4FC0
S11301708281D3DF80913C0190E0FC01EE0FFF1FF0
S1130180E80FF91FEC0FFD1FEE0FFF1FEE0FFF1F0F
S1130190E050FF4F238120933C0130E0F901EE0F42
S11301A0FF1FE20FF31FEC0FFD1FEE0FFF1FEE0FFB
S11301B0FF1FE050FF4F8081B0DF80913C0190E051
S11301C09C01220F331F820F931FC80FD91FCC0F1E
S11301D0DD1FCC0FDD1FC050DF4F89819EDFDF9113
S11301E0CF9108958FE081BB80E0AEDF82E0ACDF89
S11101F082E0AADF82E0A8DFFFCFF894FFCF01
S11301FE01020000000100010400000200040000DE
S113020E03000201000200020004000000010001CC
S113021E00030000000000000005000400050004B7
S10F022E000400000005000400050004AA
S903010EED
