:1000000045C000004BC0000049C0000047C00000D0
:1000100045C0000043C0000041C000003FC00000D8
:100020003DC000003BC0000039C0000037C00000E8
:1000300035C0000033C0000031C000002FC00000F8
:100040002DC000002BC0000029C0000027C0000008
:1000500025C0000023C0000021C000001FC0000018
:100060001DC000001BC0000019C0000017C0000028
:1000700015C0000013C0000011C000000FC0000038
:100080000DC000000BC0000009C0000011241FBEFD
:10009000CFEFD0E1DEBFCDBFC4D00FC1B1CF1816B6
:1000A00019066CF420E030E0E7ECF0E03197F1F76E
:1000B00000C000002F5F3F4F82179307A9F70895F4
:1000C0008FEF87BBBB98C09A82E58DB908958FB931
:1000D000779BFECF089598B321E030E002C0220F55
:1000E000331F8A95E2F72095292328BB089598B3FA
:1000F00021E030E002C0220F331F8A95E2F7292B5E
:1001000028BB089580E0E7DF89E0E1DF8FEFDFDFE4
:1001100080E0EDDF80E0DFDF8AE0D9DF8FE0D7DF4E
:1001200080E0E5DF80E0D7DF8BE0D1DF84E0CFDF68
:1001300080E0DDDF80E0CFDF8CE0C9DF81E0C7DF7A
:1001400080E0D5CF0895CF93DF93D82FC62F80E0DE
:10015000C2DF8D2FBCDF8C2FBADF80E0C8DFDF91DC
:10016000CF9108950F931F93CF93DF93EC01C0318C
:1001700087E2D80714F0CFE0D7E2DD2354F5C93188
:100180008CEFD80714F4C9E1DCEF8E01DD2324F4F1
:10019000002711270C1B1D0B6AE084E0D4DFC80187
:1001A00064E670E063D0CB01CAE0D0E0BE015ED06F
:1001B000682F83E0C8DFC801BE0158D0182FCB01DB
:1001C000BE0154D0682F82E0BEDF612F81E0BBDF2B
:1001D00023C0CE0168EE73E049D0CB010AE010E005
:1001E000B80144D0682F84E0AEDFCE0164E670E051
:1001F0003DD0CB01B8013AD0682F83E0A4DFCE0117
:10020000B80134D0C82FCB01B80130D0682F82E0BC
:100210009ADF6C2F81E097DFDF91CF911F910F91D3
:100220000895CF9381E087BB4BDF6CDFC1E060E0D6
:100230008C2F89DFCF5FC530D1F788EE93E02FDFB9
:100240008DE89FEF8FDF80E197E229DF80E197E281
:1002500026DF80E197E223DF84E091E183DF88EE0F
:1002600093E01DDF81E090E0CF91089597FB072E8A
:1002700016F4009406D077FD08D00BD007FC05D00B
:100280003EF4909581959F4F0895709561957F4FAD
:100290000895AA1BBB1B51E107C0AA1FBB1FA617CD
:1002A000B70710F0A61BB70B881F991F5A95A9F71F
:0E02B00080959095BC01CD010895F894FFCF84
:00000001FF
